:1000000000800020B1010000DD010000DD010000E2
:10001000DD010000DD010000DD010000DD01000068
:10002000DD010000DD010000DD010000DD01000058
:10003000DD010000DD010000DD010000DD01000048
:100040003D350000A10B0000192A0000DD01000071
:10005000DD010000DD010000DD010000DD01000028
:10006000DD010000DD010000DD010000C90B000022
:10007000DD010000DD010000DD010000DD01000008
:10008000DD010000DD010000DD010000DD010000F8
:10009000DD010000DD010000DD010000DD010000E8
:1000A000DD010000DD010000DD010000DD010000D8
:1000B000DD010000DD010000910C0000DD01000009
:1000C000DD010000DD010000DD010000DD010000B8
:1000D000DD010000DD010000DD010000DD010000A8
:1000E00010B5054C237833B9044B13B10448AFF372
:1000F00000800123237010BD0002002000000000DA
:1001000028510000084B10B51BB108480849AFF34F
:1001100000800848036803B910BD074B002BFBD0D3
:10012000BDE81040184700BF000000002851000043
:10013000040200208401002000000000154B002B69
:1001400008BF134B9D46A3F5803A00218B460F460E
:100150001348144A121A04F05AFB0F4B002B00D01C
:1001600098470E4B002B00D0984700200021040038
:100170000D000D48002802D00C48AFF3008004F0B9
:1001800015FB2000290003F0CFFF04F0FBFA00BFAD
:1001900000000800008000200000000000000000B7
:1001A00000020020B807002000000000000000004E
:1001B000064880470649074A074B9A42BEBF51F896
:1001C000040B42F8040BF8E7FFF7B8FF3103000017
:1001D000345100000000002088010020FEE700BF2D
:1001E00080B400AF044BDB6C1B0EDBB21846BD467F
:1001F0005DF8047B704700BFB081E00F80B582B02E
:1002000000AF00F015F87860074B5B6803F00F0350
:100210001A467B68D3407B60044A7B6813607B6826
:1002200018460837BD4680BD00800C4008000020FD
:1002300080B582B000AF334BDB6A03F47053B3F583
:10024000805F0AD0B3F5005F03D0B3F5006F08D02C
:100250000BE02D4B1B687B6047E04FF400437B6055
:1002600043E02A4B1B687B603FE0264BDB6803F4CE
:10027000E063B3F5007F1BD0B3F5007F05D8002BFA
:1002800024D0B3F5807F16D02BE0B3F5806F09D072
:10029000B3F5A06F03D0B3F5407F06D021E01C4B2F
:1002A0007B6021E01B4B7B601EE01B4B7B601BE0F7
:1002B0001A4B7B6018E0FFF793FF0346122B02D91D
:1002C000174B7B6010E0174B7B600DE0FFF788FF5A
:1002D0000346122B02D9144B7B6005E0134B7B6065
:1002E00002E000237B6000BF00BF064B1B6803F4E5
:1002F000E0339B0B01337A68B2FBF3F318460837FF
:10030000BD4680BD00800C4004000020000000209D
:10031000003FAB01406F4001809FD500C0D8A700CF
:1003200040B56400C0CF6A00804F120040420F0009
:1003300080B400AF054A054BD3F8883043F470030E
:10034000C2F88830BD465DF8047B704700ED00E0E0
:1003500080B400AF4FF400431846BD465DF8047BFF
:10036000704700BF80B400AF4FF47A731846BD46A3
:100370005DF8047B704700BF80B400AF034B1B687F
:100380001846BD465DF8047B704700BF040000209E
:1003900080B483B000AF03463960FB7197F9073032
:1003A000002B0BDA0D49FB7903F00F03043B3A688D
:1003B000D2B25201D2B20B441A7609E0084997F939
:1003C00007303A68D2B25201D2B20B4483F800230C
:1003D0000C37BD465DF8047B704700BF00ED00E0C0
:1003E00000E100E080B584B000AF78603960254B53
:1003F0001B7883F00103DBB2002B01D0224B3DE0E0
:100400007B68002B01D1214B38E002F00BFFB86074
:100410000023FB602BE01E49FA6813469B0013443F
:100420009B000B4410331B7883F00103DBB2002BDD
:100430001AD0FA687B681A601549FA6813469B005F
:1004400013449B000B44103301221A701049FA68C0
:1004500013469B0013449B000B4400221A60B868AB
:1004600002F0F0FE002309E0FB680133FB60FB684B
:100470000B2BD0DDB86802F0E5FE064B18461037AE
:10048000BD4680BD1C020020028000F0018000F00B
:1004900020020020048000F080B584B000AF02F09C
:1004A000C1FEB860194B1B78002B04D0B86802F06D
:1004B000C9FE174B25E0154B01221A70B86802F0EF
:1004C000C1FE0023FB600CE01249FA6813469B0052
:1004D00013449B000B44103300221A70FB68013355
:1004E000FB60FB680B2BEFDD00200421FFF750FFC2
:1004F00000233B70084B7B603B46184603F08EF9A7
:10050000002318461037BD4680BD00BF1C020020E6
:10051000038000F0200200200005002080B58CB090
:1005200008AFF860B9607A603B607B6800933B6815
:100530000193002302933B7E0393FB69049397F896
:10054000203005937B6A0693BB6A07930020002145
:10055000FA68BB6800F044F9034618461037BD46F8
:1005600080BD00BF80B58CB008AFF860B9607A601C
:100570003B607B6800933B680193002302933B7EC2
:100580000393FB69049397F8203005937B6A0693E5
:10059000BB6A079300200121FA68BB6800F020F9CC
:1005A000034618461037BD4680BD00BF80B582B0F7
:1005B00000AF7860134B1B7883F00103DBB2002B94
:1005C00001D0114B19E07B680B2B01D90F4B14E0C4
:1005D0000F497A6813469B0013449B000B44103369
:1005E0001B7883F00103DBB2002B01D0094B04E040
:1005F0007868002103F0F6F8002318460837BD4656
:1006000080BD00BF1C020020028000F0018000F0CD
:1006100020020020078000F080B582B000AF786033
:10062000134B1B7883F00103DBB2002B01D0114B7D
:1006300019E07B680B2B01D90F4B14E00F497A6846
:1006400013469B0013449B000B4410331B7883F02C
:100650000103DBB2002B01D0094B04E078680121D3
:1006600003F0C0F8002318460837BD4680BD00BF20
:100670001C020020028000F0018000F02002002017
:10068000078000F080B582B000AF78603960194B08
:100690001B7883F00103DBB2002B01D0164B25E061
:1006A0007B680B2B02D83B68002B01D1134B1DE05C
:1006B00013497A6813469B0013449B000B44103384
:1006C0001B7883F00103DBB2002B01D00D4B0DE052
:1006D000786803F06FF80346002B03D03B680122D3
:1006E0001A7002E03B6800221A700023184608378F
:1006F000BD4680BD1C020020028000F0018000F099
:1007000020020020078000F080B586B000AFF860BE
:100710000B467A60FB72FA6813469B0013449B00F9
:100720000B4A13447B617B691B68002B0CD07B69EF
:100730009B685A1C7B699A607B691B687A6991681F
:100740007A695268F86898471837BD4680BD00BF7F
:100750002002002080B58AB004AFF8600B467A60B2
:10076000FB720123FB75FA6813469B0013449B0040
:100770001A4A13443B613B691B68002B1AD03B6942
:100780009B685A1C3B699A603B691B683A6991688F
:100790003A695268F86898470346002B14BF012352
:1007A0000023DBB283F00103DBB2FB75FB7D03F0BA
:1007B0000103FB753B69DB68013B1946FA7A0023AC
:1007C00000930191FB7D029300201146002200233B
:1007D00003F04EF81837BD4680BD00BF2002002050
:1007E00080B58EB004AFBA607B600346FB730B46E6
:1007F000BB73864B1B7883F00103DBB2002B01D067
:10080000834BFEE0BB680B2B0FD83B6B002B0CD04F
:100810007B6B002B09D03B6CB3F5806F05DCFB7B59
:10082000012B04D1BB6B002B01D17A4BE9E0BA68F4
:1008300013469B0013449B00774A13447B627B6AF8
:100840001B7C83F00103DBB2002B01D0734BD8E09B
:10085000FB7B002B09D17249BA6813465B00134435
:100860009B000B446F4A1A6008E06D49BA68134652
:100870005B0013449B000B446B4A1A606849BA68DA
:1008800013465B0013449B000B4400225A60002374
:100890003B76BB6C002B02D1FB7B012B02D10123E9
:1008A0007B7601E000237B767B68FB61BA681346A8
:1008B0005B0013449B005A4A13443B6207F1180340
:1008C000B868194602F0F6FEBB7B002B19D197F8E9
:1008D0003C30002B10D097F84430002B02D100237D
:1008E0007B740BE097F84430012B02D101237B7419
:1008F00004E002237B7401E003237B7403233B7435
:1009000018E097F83C30002B10D097F84430002BBB
:1009100002D100233B740BE097F84430012B02D145
:1009200001233B7404E002233B7401E003233B7486
:1009300003237B7497F84430BB740023FB740023BB
:100940003B7507F11003B86801211A4602F0FAFE60
:10095000FB7B012B06D107F11003B86800211A4672
:1009600002F0F0FE7B6ABA6C1A607B6AFA6C5A601D
:100970007B6A00229A607B6A3A6CDA602B4ABB6819
:10098000012101FA03F3194602F580530833196077
:10099000FB7B002B0CD13B6C013B1A467B6B00931D
:1009A0000192B868012100223B6B02F033FE27E080
:1009B000BB7B002B12D13B6C013B19463B6C013BCE
:1009C0001A4600913B6B0193BB6B02930392B8688C
:1009D00000213A6B7B6B02F03FFE11E03B6C013B68
:1009E00019463B6C013B1A4600917B6B0193BB6B34
:1009F00002930392B86800213A6BBB6B02F02CFEA5
:100A0000002318462837BD4680BD00BF1C020020C9
:100A1000028000F0018000F020020020078000F03A
:100A200010030020090700005507000000200C40BB
:100A300080B483B000AF0346FB71084997F90730D3
:100A40005B09FA7902F01F02012000FA02F241F874
:100A500023200C37BD465DF8047B704700E100E0C1
:100A600080B483B000AF0346FB71094997F90730A2
:100A70005B09FA7902F01F02012000FA02F26033EA
:100A800041F823200C37BD465DF8047B704700BF5A
:100A900000E100E080B483B000AF7860044A7B6876
:100AA000C2F81C310C37BD465DF8047B704700BFAF
:100AB0000060004080B483B000AF074BD3F8103122
:100AC0007B60054BD3F814217B68134018460C3724
:100AD000BD465DF8047B70470060004080B485B07F
:100AE00000AF78607B68FB60FB6893FAA3F3BB60A0
:100AF000BB68B3FA83F318461437BD465DF8047B30
:100B0000704700BF80B500AF0B20FFF7A9FF0B2097
:100B1000FFF78EFF0120FFF7A3FF0120FFF788FFFB
:100B200080BD00BF80B584B000AF03463960FB7163
:100B300002F078FBF860FB7904493A6841F8232019
:100B4000F86802F07FFB1037BD4680BDA00300208F
:100B500080B584B000AF786019E07868FFF7BEFF19
:100B6000F860FB68012202FA03F3DB431A467B6854
:100B700013407B60094AFB6852F82330BB60BB68B6
:100B8000002B04D0FB68DAB2BB68104698477B683C
:100B9000002BE2D11037BD4680BD00BFA00300206E
:100BA00080B582B000AFFFF785FF024645F255538E
:100BB00013407B607868FFF76DFF7868FFF7C8FF28
:100BC0000837BD4680BD00BF80B582B000AFFFF7DB
:100BD00071FF02464AF6AA2313407B607868FFF74C
:100BE00059FF7868FFF7B4FF0837BD4680BD00BFE6
:100BF00080B400AF034B5B681846BD465DF8047BCC
:100C0000704700BF0000084080B483B000AF786038
:100C1000034A7B6893610C37BD465DF8047B7047DF
:100C20000000084080B483B000AF78600549054BF0
:100C3000DA697B68DB431340CB610C37BD465DF856
:100C4000047B70470000084080B483B000AF786038
:100C50000549054BDA697B681343CB610C37BD4608
:100C60005DF8047B704700BF0000084080B483B08B
:100C700000AF064BDB697B60044B1A697B6813404D
:100C800018460C37BD465DF8047B704700000840ED
:100C900080B586B000AF02F0C5FA3861FFF7E6FF15
:100CA000F860FB6823F003031846FFF7ADFFFB680D
:100CB00003F00203002B39D01F4B01221A70FFF7FB
:100CC00097FF78610220FFF7ADFF7B691A021B4B8B
:100CD0001B681B02D31A1B0ABB60B86800F032F80D
:100CE00000F094F9786900F0C3F9FFF781FF7861AB
:100CF0007B691A02114B1B681B02D31A1B0ABB60CB
:100D0000002003F017F803461A020C4B1B681B0265
:100D1000D31A1B0A7B600A4B1B78002B03D0BA68DE
:100D20007B689A42CED8044B00221A70386902F0D0
:100D300089FA1837BD4680BD840400208004002055
:100D400085040020B0B586B000AF786000237B61D9
:100D500053E1AD497A6913469B001344DB000B4411
:100D6000183300225A71A8497A6913469B0013442C
:100D7000DB000B4418331B79002B00F03B81A249A8
:100D80007A6913469B001344DB000B44D3E900232C
:100D9000796808464FF00001994208BF904219D285
:100DA00099497A6913469B001344DB000B44D3E94D
:100DB00000017B681A464FF00003801A61EB0301C3
:100DC000914C7A6913469B001344DB002344C3E92A
:100DD00000010FE18C497A6913469B001344DB0044
:100DE0000B441833DB79002B0AD187497A69134603
:100DF0009B001344DB000B44183300221A71E4E01B
:100E00007B6818464FF000017F4C7A6913469B00BF
:100E10001344DB002344D3E90023821A61EB03036C
:100E2000C7E9022378497A6913469B001344DB0023
:100E30000B440833D3E9004573497A6913469B0094
:100E40001344DB000B440833D3E90023D7E9020144
:100E500003F0CAF920462946801A61EB03016A4C67
:100E60007A6913469B001344DB002344C3E9000165
:100E700065497A6913469B001344DB000B44103329
:100E80001B68002B50DD60497A6913469B001344B0
:100E9000DB000B44103359685B487A6913469B00AA
:100EA0001344DB00034410331B68194456487A6925
:100EB00013469B001344DB0003441033596052492E
:100EC0007A6913469B001344DB000B4410335B68C4
:100ED000F32B7AD94C497A6913469B001344DB0003
:100EE0000B44D3E90023501C43F10001464C7A69BE
:100EF00013469B001344DB002344C3E9000142492D
:100F00007A6913469B001344DB000B4410335B6883
:100F1000A3F1F4013C487A6913469B001344DB00BB
:100F200003441033596050E037497A6913469B00F7
:100F30001344DB000B441033596833487A69134675
:100F40009B001344DB00034410331B68C91A2E486E
:100F50007A6913469B001344DB0003441033596045
:100F600029497A6913469B001344DB000B44103374
:100F70005B68F32B29D924497A6913469B001344F3
:100F8000DB000B44D3E9002312F1FF3043F1FF31C2
:100F90001D4C7A6913469B001344DB002344C3E9CC
:100FA000000119497A6913469B001344DB000B4486
:100FB00010335B68A3F1F40113487A6913469B0070
:100FC0001344DB000344103359600F497A69134618
:100FD0009B001344DB000B4418331B68002B09D023
:100FE00009497A6913469B001344DB000B4418330C
:100FF00001225A717B6901337B617B69032B7FF787
:10100000A8AE1837BD46B0BDE003002090B583B050
:1010100000AF00237B6022E014497A6813469B00EE
:101020001344DB000B4418335B79002B14D00F49B9
:101030007A6813469B001344DB000B4418331C688A
:1010400078680A497A6813469B001344DB000B4416
:1010500020331B681946A0477B6801337B607B689F
:10106000032BD9DD0C37BD4690BD00BFE003002047
:1010700080B58AB000AF78604FF0FF324FF0FF3399
:10108000C7E9062300237B6227E037497A6A1346C3
:101090009B001344DB000B4418331B79002B19D041
:1010A00031497A6A13469B001344DB000B44D3E9B1
:1010B0000001D7E90623994208BF90420AD22A4983
:1010C0007A6A13469B001344DB000B44D3E90023E8
:1010D000C7E906237B6A01337B627B6A032BD4DD7D
:1010E000224B00221A70D7E90623B3F1FF3F08BF55
:1010F000B2F1FF3F35D0D7E90623C7E904231C4BE3
:10110000FB60FB681A464FF00003D7E904019942DF
:1011100008BF904201D202460B46C7E90623154B91
:101120001B7883F00103DBB2002B05D07B6823F032
:101130007F43114A136002E00F4A7B68136002206C
:10114000FFF762FDBA697B68134423F07F430020F8
:10115000194602F00DFE054B01221A700220FFF71E
:1011600073FD2837BD4680BDE003002085040020C4
:101170009BFFFF00840400208004002080B483B023
:1011800000AF786039607B683A689A640C37BD4676
:101190005DF8047B704700BF80B485B000AF786015
:1011A00039607B6803F10473DA003B6813449B00E9
:1011B000FB60FB681B6818461437BD465DF8047B6E
:1011C000704700BF80B582B000AF03463960FB7145
:1011D000FB79002B0DD0FB79012B0AD0FB79022B78
:1011E00007D0FB79032B04D0FB79042B01D0FB79CA
:1011F000052BFA791346DB0013449B001C3303F1E3
:10120000804303F5C04318463968FFF7C5FF03461E
:1012100018460837BD4680BD80B483B000AF034692
:101220003960FB71FB79002B0DD0FB79012B0AD0C3
:10123000FB79022B07D0FB79032B04D0FB79042B1D
:1012400001D0FB79052B0949FA793B68012000FAA6
:1012500003F318461346DB0013449B000B44103382
:1012600058600C37BD465DF8047B70470060004055
:1012700080B483B000AF03463960FB71FB79002B6B
:101280000DD0FB79012B0AD0FB79022B07D0FB791B
:10129000032B04D0FB79042B01D0FB79052B0949E2
:1012A000FA793B68012000FA03F318461346DB0085
:1012B00013449B000B44103318600C37BD465DF897
:1012C000047B70470060004090B585B002AF396084
:1012D00011461A460346FB710B46BB7113467B71E0
:1012E000FA79BC797B7900933B7E0193104639688B
:1012F0003A68234602F0FEFB0C37BD4690BD00BFA6
:1013000080B400AF054A054B1B6923F00403136149
:1013100030BFBD465DF8047B704700BF00ED00E0C4
:1013200080B485B000AF78600023FB6010E00D4A08
:10133000FB6852F823305B7F1A467B689A4204D1DF
:10134000084AFB6852F8233006E0FB680133FB6073
:10135000FB68032BEBD9002318461437BD465DF814
:10136000047B70478804002080B582B000AF7860AD
:101370007B6893F83130022B0AD17B685A7E7B68F8
:101380005B7F10461946FFF71DFF0346DBB200E006
:10139000002318460837BD4680BD00BF80B586B023
:1013A00000AF0346FB71FB791846FFF7B9FF786180
:1013B0007B69002B3ED07B6993F83130022B39D109
:1013C0007869FFF7D1FF03461A467B691A757B6976
:1013D0005B7D022B2ED17B6993F82E30DBB2002B84
:1013E00028D10023FB737B695A6807F10F0310466D
:1013F0001946FFF747F938617B691B7D002B04D044
:101400007B6993F82F30002B09D07B69002283F889
:101410002F207B695B681846FFF7FEF80AE03B69FE
:10142000002B07D1FB7B002B04D07B695B6818463F
:10143000FFF7BCF81837BD4680BD00BF80B584B04B
:1014400000AF78607B6893F83130022B2FD17B6836
:101450005B7D002B08D17B689A7E7B689B7F104662
:101460001946FFF7D9FE4AE07B685B7D012B08D166
:101470007B689A7E7B689B7F10461946FFF7F8FED3
:101480003DE07B681B7D002B08D17B689A7E7B68E2
:101490009B7F10461946FFF7BFFE30E07B689A7EBF
:1014A0007B689B7F10461946FFF7E2FE27E07B68CA
:1014B00093F83130012B22D17B681B7D002B0FD19B
:1014C0001123FB73786801F033F907F10F03786893
:1014D0001946012201F09AF8786801F0FDF90EE052
:1014E0001323FB73786801F023F907F10F03786881
:1014F0001946012201F08AF8786801F0EDF900231D
:1015000018461037BD4680BD80B586B000AFF86084
:10151000B9607A6001F086FE7861FB689B889AB2B8
:10152000FB68DB889A4207D37B6800221A607869DF
:1015300001F088FE1D4B35E0FB681B889BB21A4604
:1015400013469B0013449B000833FA681344184663
:10155000B968142203F050F9FB681B889BB21A4645
:1015600013469B0013449B000833FA681A447B68B7
:101570001A60FB681B889BB20133FA68D28893FB20
:10158000F2F102FB01F29B1A9AB2FB681A80FB6827
:101590009B889BB201339AB2FB689A80786901F00C
:1015A00051FE002318461837BD4680BD0A7000F072
:1015B00080B584B000AF7860396001F033FEF86028
:1015C0007B689B889BB2002B07D13B6800221A6086
:1015D000F86801F037FE164B25E07B685B889BB20C
:1015E0001A4613469B0013449B0008337A681A443A
:1015F0003B681A607B685B889BB201337A68D2884B
:1016000093FBF2F102FB01F29B1A9AB27B685A80BB
:101610007B689B889BB2013B9AB27B689A80F86892
:1016200001F010FE002318461037BD4680BD00BFF4
:101630000B7000F080B584B000AF7860396001F0C5
:10164000F1FDF8607B689B889BB2002B07D13B685B
:1016500000221A60F86801F0F5FD0B4B10E07B6882
:101660005B889BB21A4613469B0013449B000833C9
:101670007A681A443B681A60F86801F0E3FD0023B9
:1016800018461037BD4680BD0B7000F080B483B0A3
:1016900000AF78607B6893F83230002B14D17B6800
:1016A0001B680422DA6000BF7B681B681B6903F0BB
:1016B0000203002BF8D07B681B687A681268526DB1
:1016C00042F002025A6520E07B6893F83230012B29
:1016D0001BD100BF7B681B685B6C03F00203002B0F
:1016E000F8D17B681B6804225A6000BF7B681B68C6
:1016F0009B6803F00203002BF8D07B681B687A68B4
:101700001268526D42F002025A650C37BD465DF810
:10171000047B704780B483B000AF78607B6893F837
:101720003230002B0CD17B681B687A681268526DCE
:1017300022F002025A657B681B680822DA6018E012
:101740007B6893F83230012B13D100BF7B681B6894
:101750005B6C03F00203002BF8D17B681B687A688E
:101760001268526D22F002025A657B681B680822DB
:101770005A600C37BD465DF8047B704780B483B077
:1017800000AF78607B6893F83230002B14D17B680F
:101790001B680122DA6000BF7B681B681B6903F0CD
:1017A0000103002BF8D07B681B687A681268526DC1
:1017B00042F001025A6520E07B6893F83230012B39
:1017C0001BD100BF7B681B685B6C03F00203002B1E
:1017D000F8D17B681B6801225A6000BF7B681B68D8
:1017E0009B6803F00103002BF8D07B681B687A68C4
:1017F0001268526D42F001025A650C37BD465DF821
:10180000047B704780B483B000AF78607B6893F846
:101810003230002B0CD17B681B687A681268526DDD
:1018200022F001025A657B681B680222DA6018E028
:101830007B6893F83230012B13D100BF7B681B68A3
:101840005B6C03F00203002BF8D17B681B687A689D
:101850001268526D22F001025A657B681B680222F1
:101860005A600C37BD465DF8047B704790B58BB06D
:1018700006AF786039600023FB607B68012283F843
:101880002C207B6893F83230002B04D17B681B68D6
:101890001C33FB600EE07B6893F83230012B04D1DF
:1018A0007B681B681C33FB6004E07B68002283F8C4
:1018B0002C2014E07B6898687B6819693B681A687B
:1018C0003B685B681C46012300930194002302934C
:1018D000044B03937B680493FB68FEF743FE1437C5
:1018E000BD4690BD6D19000090B58BB006AF786015
:1018F00039600023FB607B68012283F82D207B6820
:1019000093F83230002B04D17B681B683433FB60C2
:101910000EE07B6893F83230012B04D17B681B68A2
:101920002833FB6004E07B68002283F82D2017E059
:101930007B6859687B68DA683B681C683B685B6851
:10194000184601230093019000230293064B039352
:101950007B68049308461146FA682346FEF7DEFDCD
:101960001437BD4690BD00BF051B0000B0B588B060
:1019700000AFF860B9607A607B68FB61FB695A6A06
:1019800007F1100310461946FFF754FEB861BB6912
:10199000594A934201D10123AAE0FB6993F83230FE
:1019A000002B12D1FB691B681B6C03F40073002B26
:1019B0000BD03B69514A1A613B6900229A60FB696E
:1019C0001B684FF400729A644BE0FB6993F8323065
:1019D000012B11D1FB691B68DB6A03F08003002B2C
:1019E0000AD03B69454A1A613B6900229A60FB694B
:1019F0001B6880225A6334E0FB6993F83230002B75
:101A000012D1FB691B681B6C03F48073002B0BD095
:101A10003B693B4A1A613B6900229A60FB691B687B
:101A20004FF480729A641CE0FB6993F83230012B0A
:101A300011D1FB691B68DB6A03F04003002B0AD05D
:101A40003B692F4A1A613B6900229A60FB691B6857
:101A500040225A6305E03B6900221A613B6900227B
:101A60009A6001F0DFFB78613B69DB68002B0DD0E9
:101A70003B69DC683B6919693B691D683B695A68C9
:101A80003B699B68D31AF8692A46A047FB695A6AE2
:101A900007F1100310461946FFF78AFDFB695B6AE0
:101AA0009B889BB2002B0DD0FB695A6A07F110038B
:101AB00010461946FFF7BEFD3B69F8691946FFF766
:101AC000D5FE11E0FB6901221A75F869FFF7B6FC33
:101AD000FB69002283F82C20FB6993F83130032B3B
:101AE00002D0F869FFF78EFE786901F0ABFB0123A5
:101AF00018462037BD46B0BD0B7000F00D7000F0E9
:101B00000C7000F090B589B000AFF860B9607A60F1
:101B10007B68FB61FB699A6A07F11003104619465E
:101B2000FFF788FDB861BB69214A934201D10123C7
:101B300039E03B6900221A613B6900229A6001F09A
:101B400071FB78613B69DB68002B08D03B69DC687E
:101B50003B691A683B695B68F8690021A047FB692B
:101B60009A6A07F1100310461946FFF721FDFB6939
:101B70009B6A9B889BB2002B0DD0FB699A6A07F188
:101B8000100310461946FFF755FD3B69F8691946E1
:101B9000FFF7AAFE03E0FB69002283F82D20786995
:101BA00001F050FB012318462437BD4690BD00BF0D
:101BB0000B7000F080B485B000AFF860B9607A6057
:101BC000FB68002B01D10A4B0CE0BB68002B06D050
:101BD0007B68002B03D07B68B3F5806F01D9054B80
:101BE00000E0002318461437BD465DF8047B7047BB
:101BF000027000F0037000F080B483B000AF786032
:101C000039607B681B689B4A934240F09D803B682B
:101C10001B7A002B1FD03B681B7A012B19D03B6825
:101C20001B7A022B13D03B681B7A032B0DD03B6829
:101C30001B7A042B07D03B681B7A052B01D10223AA
:101C40000AE0FF2308E0012306E0042304E0022366
:101C500002E0042300E004237A68D3753B681B7A12
:101C6000002B1FD03B681B7A012B19D03B681B7AD5
:101C7000022B13D03B681B7A032B0DD03B681B7AD9
:101C8000042B07D03B681B7A052B01D102230AE005
:101C9000FF2308E0012306E0042304E0022302E01E
:101CA000042300E004237A6813763B681B7A002B38
:101CB0001FD03B681B7A012B19D03B681B7A022B83
:101CC00013D03B681B7A032B0DD03B681B7A042B87
:101CD00007D03B681B7A052B01D100230AE0FF23C4
:101CE00008E0072306E00D2304E00B2302E00723AE
:101CF00000E00A237A68D3763B681B7A002B1FD05A
:101D00003B681B7A012B19D03B681B7A022B13D03E
:101D10003B681B7A032B0DD03B681B7A042B07D042
:101D20003B681B7A052B01D101230AE0FF2308E061
:101D3000082306E00C2304E00A2302E0062300E067
:101D40000B237A68137787E17B681B684A4A9342C2
:101D500054D13B681B7A002B0DD03B681B7A012BBA
:101D600007D03B681B7A022B01D1032304E0FF2339
:101D700002E0032300E002237A68D3753B681B7AF4
:101D8000002B0DD03B681B7A012B07D03B681B7AD8
:101D9000022B01D1032304E0FF2302E0032300E030
:101DA00002237A6813763B681B7A002B0DD03B68C0
:101DB0001B7A012B07D03B681B7A022B01D107232A
:101DC00004E0FF2302E0002300E000237A68D376DA
:101DD0003B681B7A002B0DD03B681B7A012B07D088
:101DE0003B681B7A022B01D1062304E0FF2302E0AB
:101DF000012300E001237A6813772DE17B681B68DB
:101E00001E4A934242D13B681B7A002B07D03B68A5
:101E10001B7A012B01D1012302E0FF2300E0022302
:101E20007A68D3753B681B7A002B07D03B681B7A16
:101E3000012B01D1012302E0FF2300E002237A6895
:101E400013763B681B7A002B07D03B681B7A012B6B
:101E500001D1032302E0FF2300E002237A68D37656
:101E60003B681B7A002B0DD03B681B7A012B07D1F6
:101E7000042308E000C0004000C4004000C8004047
:101E8000FF2300E003237A681377E5E07B681B6893
:101E90007D4A93426CD13B681B7A002B13D03B6880
:101EA0001B7A012B0DD03B681B7A022B07D03B68B5
:101EB0001B7A032B01D1022306E0FF2304E0002359
:101EC00002E0042300E005237A68D3753B681B7A9F
:101ED000002B13D03B681B7A012B0DD03B681B7A7B
:101EE000022B07D03B681B7A032B01D1022306E0AB
:101EF000FF2304E0002302E0042300E005237A68C6
:101F000013763B681B7A002B13D03B681B7A012B9E
:101F10000DD03B681B7A022B07D03B681B7A032B42
:101F200001D10E2306E0FF2304E0032302E0002397
:101F300000E006237A68D3763B681B7A002B13D027
:101F40003B681B7A012B0DD03B681B7A022B07D014
:101F50003B681B7A032B01D10F2306E0FF2304E02B
:101F6000042302E0012300E007237A68137773E07B
:101F70007B681B68454A93426CD13B681B7A002BF7
:101F800013D03B681B7A012B0DD03B681B7A022BC8
:101F900007D03B681B7A032B01D1042306E0FF2303
:101FA00004E0012302E0052300E002237A68D375F0
:101FB0003B681B7A002B13D03B681B7A012B0DD09A
:101FC0003B681B7A022B07D03B681B7A032B01D19D
:101FD000042306E0FF2304E0012302E0052300E0E0
:101FE00002237A6813763B681B7A002B13D03B6878
:101FF0001B7A012B0DD03B681B7A022B07D03B6864
:102000001B7A032B01D1022306E0FF2304E00923FE
:1020100002E00A2300E00C237A68D3763B681B7A3F
:10202000002B13D03B681B7A012B0DD03B681B7A29
:10203000022B07D03B681B7A032B01D1032306E058
:10204000FF2304E00A2302E00B2300E00D237A685B
:10205000137701E00E4B10E03B685A7C7B685A76A0
:102060003B689A7C7B685A773B68DA7C7B689A7617
:102070003B681A7D7B689A77002318460C37BD466B
:102080005DF8047B704700BF00E0004000E40040C2
:10209000037000F080B584B002AF78600B46FB702F
:1020A000FB78002B53D07B68DA7D7B68DB7E1046A3
:1020B00019460422012301F087FD7B681A7E7B68A4
:1020C0001B7F104619460222012301F07DFD7B682B
:1020D00093F83130022B20D17B685A7E7B685B7F7E
:1020E000104619460122002301F06EFD7B689A7E9E
:1020F0007B689B7F104619460422002301F064FD93
:102100007B685A7E7B685B7F1946012300931046EB
:1021100001220123FFF7D8F86CE07B6893F8313097
:10212000032B67D17B685A7E7B685B7F104619461C
:102130000122002301F048FD7B689A7E7B689B7F2B
:10214000104619460422002301F03EFD52E07B6850
:10215000DA7D7B68DB7E104619460022002301F001
:1021600033FD7B681A7E7B681B7F10461946002270
:10217000002301F029FD7B6893F83130022B20D138
:102180007B685A7E7B685B7F1046194600220023DD
:1021900001F01AFD7B689A7E7B689B7F104619468A
:1021A0000022002301F010FD7B685A7E7B685B7F74
:1021B000194600230093104601220123FFF784F8FB
:1021C00018E07B6893F83130032B13D17B685A7E7B
:1021D0007B685B7F104619460022002301F0F4FC67
:1021E0007B689A7E7B689B7F1046194600220023FD
:1021F00001F0EAFC002318460837BD4680BD00BF49
:1022000080B485B000AF7860234B1B7883F0010366
:10221000DBB2002B10D00023BB6007E01F4ABB6875
:10222000002142F82310BB680133BB60BB68032B5D
:10223000F4D9194B01221A700023FB730023BB60F1
:1022400017E0164ABB6852F82330002B06D0134A19
:10225000BB6852F823207B689A4207D10F49BB68BC
:102260007A6841F823200123FB7305E0BB68013342
:10227000BB60BB68032BE4D9FB7B83F00103DBB2BB
:10228000002B01D0064B00E0002318461437BD4652
:102290005DF8047B704700BF86040020880400209E
:1022A000027000F080B485B000AFF860B9607A6069
:1022B000FB68BA685A62FB685B6A00221A80FB6896
:1022C0005B6A00225A80FB685B6A00229A80FB6886
:1022D000002283F82C20FB687A689A62FB689B6A6C
:1022E00000221A80FB689B6A00225A80FB689B6A66
:1022F00000229A80FB68002283F82D20FB680022D0
:1023000083F82F201437BD465DF8047B704700BF6B
:1023100080B582B000AF7860FEF7F4FB7B685B7F2E
:1023200018460949FEF7FEFB7B6800229A757B6818
:1023300000221A757B6802225A757868FFF77EF8CA
:102340000837BD4680BD00BF9D13000080B582B038
:1023500000AF7860FEF7A0F87B68043318460021D0
:10236000FEF740F80346002B01D0094B0BE07B68D9
:10237000083318460021FEF735F80346002B01D03C
:10238000034B00E0002318460837BD4680BD00BF60
:102390000E7000F0B0B58AB000AF78603960874B3E
:1023A00007F108041D460FCD0FC495E8030084E82B
:1023B00003007B68002B01D1814BFBE03B68002BC5
:1023C00001D1804BF6E078680021342202F01FFA38
:1023D0007868FFF715FF78627B6A002B01D07B6A73
:1023E000E8E03B681A7C7B6883F831203B681A6818
:1023F0007B681A607B68002283F832203B681B6888
:10240000714A93420AD17B68704A1A627B68704AAB
:10241000DA607B684FF440221A6141E03B681B6838
:102420006C4A93420AD17B686B4A1A627B686B4A9A
:10243000DA607B684FF450221A6131E03B681B6818
:10244000674A93420AD17B68664A1A627B68664A89
:10245000DA607B684FF460221A6121E03B681B68F8
:10246000624A93420AD17B68614A1A627B68614A78
:10247000DA607B684FF430121A6111E03B681B6828
:102480005D4A93420AD17B685C4A1A627B685C4A67
:10249000DA607B684FF434121A6101E0494B89E03D
:1024A0003B689A693B68DB69786811461A46FFF712
:1024B000F9FE3B685B683B613B685B893B833B683B
:1024C0009B89FB823B689B7B3B753B68DB7BBB76D8
:1024D00005237B754B48012100F07AFC4A48012115
:1024E00000F076FC7B681B6A1846012100F070FC46
:1024F00000233B723B681A6807F10803104619462F
:1025000001F0E4FC3B681B683A68127A120242F060
:1025100003025A6578683968FFF76EFB78627B6A58
:10252000002B01D07B6A45E078680121FFF7B2FDFE
:1025300078627B6A002B01D07B6A3BE000F072FE80
:1025400038623B681B7C032B01D11E4B32E03B6899
:102550001B7C022B02D17868FFF7DAFE3B681B6810
:1025600018464FF0FF31FEF709FE3B681B7C032B3A
:1025700006D13B681B681846052101F06FFC05E099
:102580003B681B681846042101F068FC3B681B6827
:102590004FF44062DA60FDF77FFF7868FFF7D6FE00
:1025A0007862386A00F04EFE7B6A002B01D07B6AAD
:1025B00000E0002318462837BD46B0BD7C5000001F
:1025C000027000F0037000F000C000400002040040
:1025D00001000C0000C400400012040001000D00C6
:1025E00000C800400022040001000E0000E000408E
:1025F0000032040001002C0000E40040004204000E
:1026000001002D004081040000D2040080B588B094
:1026100000AFF860B9607A60F868B9687A68FFF767
:10262000C9FAB861BB69002B01D0BB697CE000200E
:1026300000F016FE0346FB7504E0FB7D002B01D085
:1026400000F07CFFFB689B6A9B889BB2002B05D047
:10265000FB6893F82E30DBB2002BEED0FB6893F8CA
:102660003230002B06D1FB681B681B6903F00203A4
:10267000FB610DE0FB6893F83230012B06D1FB685B
:102680001B689B6803F00203FB6101E00023FB6110
:10269000FB69002B02D1F868FEF7F8FFFB68012206
:1026A00083F83020FB6893F83230002B18D109E012
:1026B000FB681968BB685A1CBA601B780846194643
:1026C00001F0B6FC7B685A1E7A60002BF0D100BF87
:1026D000FB681B681B6903F02003002BF8D01CE08B
:1026E000FB6893F83230012B17D109E0FB681968B9
:1026F000BB685A1CBA601B780846194601F002FBF9
:102700007B685A1E7A60002BF0D100BFFB681B6803
:102710009B6803F00803002BF8D0FB69002B02D163
:10272000F868FEF7F7FF002318462037BD4680BD46
:1027300080B582B000AF78607B68002B01D1104B70
:102740001AE07B6893F82E30DBB2002B0AD1786850
:10275000FEF70AFE0346002B04D17B685B6818462F
:10276000FDF724FF7B6893F82E30DBB20133DAB239
:102770007B6883F82E20002318460837BD4680BDAD
:10278000027000F080B58CB000AFF860B9607A607C
:102790003B60F868B9687A68FFF70CFAF862FB6A80
:1027A000002B01D0FB6A37E0BB68BB617B68FB6133
:1027B0007B683B623B687B62194BBB62FB68596A72
:1027C00007F1180207F11403084611461A46FEF7EE
:1027D0009BFEF862FB6A002B01D0FB6A1CE0FB68E1
:1027E00093F82C30DBB283F00103DBB2002B12D064
:1027F000F868FEF7C3FF7B69F8681946FFF736F8FB
:10280000FB6893F83130032B05D0FB6800221A7562
:10281000F868FEF713FE002318463037BD4680BD2A
:10282000017000F080B58CB000AFF860B9607A60DC
:10283000F868B9687A68FFF7BDF9F862FB6A002B9F
:1028400001D0FB6A41E0BB68BB617B68FB617B68D0
:102850003B6200237B621F4BBB62FB68596A07F136
:10286000180207F11403084611461A46FEF74CFEFB
:10287000F862FB6A002B01D0FB6A26E001E0FEF75C
:102880003FFDFB685B6A9B889BB2012BF7D8F86819
:10289000FEF774FFFB6893F83130032B05D0FB681B
:1028A00000221A75F868FEF7C9FD7B69F8681946B9
:1028B000FEF7DCFF01E0FEF723FDFB6893F82C3008
:1028C000DBB2002BF7D17B691B6918463037BD4658
:1028D00080BD00BF017000F080B582B000AF7860AD
:1028E0007B68002B01D1144B22E07B6893F82E30DB
:1028F000DBB2002B1BD07B6893F82E30DBB2012BB0
:102900000AD17868FEF730FD0346002B04D17B68BE
:102910005B681846FDF780FE7B6893F82E30DBB2CB
:10292000013BDAB27B6883F82E20002300E0034BE2
:1029300018460837BD4680BD027000F0057000F0F3
:1029400080B58CB000AFF860B9607A603B60F86821
:10295000B9687A68FFF72EF9F862FB6A002B01D09C
:10296000FB6A39E0BB687B617B68BB617B68FB61AC
:102970003B683B621A4B7B62FB68996A07F1140261
:1029800007F11003084611461A46FEF7BDFDF8622E
:10299000FB6A002B01D0FB6A1EE0FB6893F82D3028
:1029A000DBB283F00103DBB2002B14D000F03AFC61
:1029B000B862FB689B6A9B889BB2002B08D03B697E
:1029C000F8681946FEF790FFFB68012283F8302073
:1029D000B86A00F037FC002318463037BD4680BD8A
:1029E000017000F080B483B000AF786039607B681C
:1029F0003A689A610C37BD465DF8047B704700BFAA
:102A000080B483B000AF78607B681B6918460C37D0
:102A1000BD465DF8047B704780B582B000AF0948C1
:102A2000FFF7EEFF78607B6803F01003002B06D001
:102A300004481021FFF7D6FF034B01221A70083714
:102A4000BD4680BD000001409804002080B487B0DE
:102A500000AFF860B9607A60FB6803F10473DA00D4
:102A6000BB6813449B007B617B697A681A601C37E2
:102A7000BD465DF8047B704780B485B000AF7860D8
:102A800039607B6803F10473DA003B6813449B00F0
:102A9000FB60FB681B6818461437BD465DF8047B75
:102AA000704700BF80B485B000AF78607B68002BB2
:102AB00004D07B68B3F5004F00D800BF7B68B3FA41
:102AC00083F3C3F11F03FB60FB6818461437BD4650
:102AD0005DF8047B704700BF80B400AF044BDB6C33
:102AE0001B0EDBB21846BD465DF8047B704700BF85
:102AF000B081E00F80B584B000AF78600123FB6047
:102B00007B68114A934204D80023FB600023BB601A
:102B100008E07B680D4A934202D80123BB6001E0C4
:102B20000223BB600A481E21FA68FFF78FFF08499D
:102B3000074B5B6823F48072BB681B0213434B6036
:102B40001037BD4680BD00BF00366E01006CDC0250
:102B500000800C4080B582B000AF05481E21FFF711
:102B60008BFF78607B6818460837BD4680BD00BF84
:102B700000800C4080B582B000AF214B5B6903F44C
:102B8000E063B3F5007F1CD0B3F5007F05D8002BC0
:102B900025D0B3F5807F1FD02AE0B3F5C06F24D0D5
:102BA000B3F5E06F1ED0B3F5407F21D1FFF794FF5E
:102BB0000346122B02D9134B7B601CE0124B7B6047
:102BC00019E0FFF789FF0346122B02D90F4B7B60F8
:102BD00011E00F4B7B600EE00E4B7B600BE00E4B69
:102BE0007B6008E00D4B7B6005E00D4B7B6002E0F5
:102BF00000237B6000BF7B6818460837BD4680BD58
:102C000000800C40804F120040420F0040B564002D
:102C1000C0CF6A00C0D8A700809FD500406F400198
:102C2000003FAB0180B582B000AF0D4800F024FA40
:102C30000346FB70FB78072B05D0092B07D1FDF766
:102C4000F7FA786006E0FFF795FF786002E000236E
:102C50007B6000BF7B6818460837BD4680BD00BF5B
:102C600006000C0090B585B000AF78600023BB6013
:102C70007B68344A934203D0334A934200D000E049
:102C800000BF786800F0F8F90346FB607B682D4AC6
:102C9000934203D02C4A934206D00CE02B4B9B6A04
:102CA00003F00303FB6006E0284B9B6A03F00C0370
:102CB0009B08FB6000BFFB68032B3AD801A252F8C7
:102CC00023F000BFFB2C0000D52C0000DD2C000001
:102CD000E52C0000FDF73CFBB8602DE0FDF74CFB58
:102CE000B86029E0FDF78AFA0446FFF733FF034690
:102CF000013324FA03F3BB601EE00023BB607B6852
:102D0000104A934203D07B680F4A934210D10F4B75
:102D10009A6A7B680B498B4201D1102300E014238F
:102D200022FA03F3002B03D0FDF71CFBB86003E08D
:102D300002E00023BB6000BFBB6818461437BD46E5
:102D400090BD00BF02001A0003001C0000800C4070
:102D500080B483B000AF7860094B5B6D03F0010372
:102D6000002B00D006E000BF054B1A6D7B681340B6
:102D7000002BF9D10C37BD465DF8047B704700BFCE
:102D800000800C4080B582B000AF104800F074F9AC
:102D90000346FB70FB78032B07D0092B09D0022BCD
:102DA0000BD1FDF7E9FA78600AE0FDF7D1FA786017
:102DB00006E0FDF73DFA786002E000237B6000BF8B
:102DC0007B6818460837BD4680BD00BF0723220038
:102DD00080B586B000AF78600B46FB7000233B6186
:102DE0007B681B0A03F00F03013B092B45D801A2A6
:102DF00052F823F0312E0000372E00001D2E000067
:102E00007B2E00007B2E00003D2E0000472E000090
:102E10007B2E00007B2E0000512E0000194B7B61A1
:102E2000194800F03DF803461846FFF763FE12E02C
:102E3000164B7B610FE0164B7B610CE0154B7B6101
:102E400001233B6107E0144B7B6110233B6102E0EF
:102E5000124B7B6100BF7B681B0B03F01F03FB6001
:102E60003B69002B02D03869FFF772FFFB78786965
:102E7000F9681A46FFF7EAFD00E000BF1837BD46C3
:102E800080BD00BF40800C400043020008800C4021
:102E900044800C4058800C4060800C4078800C408E
:102EA00090B585B000AF78607B6803F47813B3F514
:102EB000B01F00F0AB80B3F5B01F1AD8B3F5402FA8
:102EC00000F0BF80B3F5402F08D8B3F5003F3CD0E9
:102ED000B3F5802F2DD0002B27D0BEE0B3F5801F97
:102EE0003CD0B3F5A01F47D0B3F5602F00F0AD8004
:102EF000B3E0B3F5081F00F0AC80B3F5081F0AD8A3
:102F0000B3F5D01F25D0B3F5E01F7AD0B3F5C01FBD
:102F100000F08980A1E0B3F5201F4ED0B3F5281F43
:102F200062D0B3F5181F35D097E0FDF781F9F8604E
:102F300096E0FDF77DF9F8604C4B9B6803F00F03BA
:102F40001A46FB68D340FB608AE0FDF757F9F8604A
:102F500086E04748FFF786FEF86081E04448FFF7C7
:102F600081FEF860414B9B6E03F0F0031B091A468B
:102F7000FB68D340FB6073E03D48FFF773FEF860E9
:102F80003A4B9B6E03F470631B0A1A46FB68D340EE
:102F9000FB6065E03648FFF765FEF860334B9B6EDB
:102FA00003F440531C0B1020FFF77CFD0346234421
:102FB0001A46FB68D340FB6052E02D48FFF752FEF3
:102FC000F8602A4B9B6E03F440531B0B1A46FB68B8
:102FD000D340FB60254BDB6F03F007030133FA6836
:102FE000B2FBF3F3FB603BE02148FFF73BFEF860E8
:102FF0001E4B9B6E03F003031A46FB68D340FB6035
:103000002EE01C48FFF72EFEF86029E01948FFF774
:1030100029FEF860154B1B6F03F003031A46FB688B
:10302000D340FB601CE01348FFF71CFEF8600F4B19
:103030001B6F03F030031B091A46FB68D340FB608B
:103040000EE0FFF7EFFDF8600AE0FFF793FDF86090
:1030500006E0FFF797FEF86002E00023FB6000BF88
:10306000FB6818461437BD4690BD00BF00800C4079
:1030700002001A0003001C0080B485B000AF786025
:103080000123FB737B6803F00F03BB60BB68013B4C
:10309000062B00F2938001A252F823F0B930000011
:1030A000EF3000002B310000BD310000BD310000C9
:1030B0006731000089310000454BDB6A03F470532F
:1030C000B3F5805F09D0B3F5005F03D0B3F5006FAF
:1030D00006D008E00223FB7308E00323FB7305E03E
:1030E0000423FB7302E00523FB7300BF69E0384B48
:1030F0009B6A03F00303022B06D0032B07D0012B9E
:1031000008D10323FB730FE00223FB730CE00623BB
:10311000FB7309E02E4B9B6A03F48033002B02D033
:103120000A23FB7300E000BF4BE0294B9B6A03F0CE
:103130000C03082B06D00C2B07D0042B08D103233B
:10314000FB730FE00223FB730CE00623FB7309E023
:103150001F4B9B6A03F48013002B02D00A23FB73DE
:1031600000E000BF2DE01A4B1B6803F08053002BDA
:1031700003D0B3F1805F03D023E00723FB7302E0A9
:103180000923FB7300BF1CE0114BDB6A03F46033BF
:10319000B3F5803F08D0B3F5003F08D0B3F5004F3A
:1031A00008D10923FB7308E00223FB7305E0032326
:1031B000FB7302E00123FB7300BF02E00023FB73FB
:1031C00000BFFB7B18461437BD465DF8047B704793
:1031D00000800C4080B483B000AF0346FB7197F9C8
:1031E0000730002B0ADA0D4AFB7903F00F03043B8A
:1031F00013441B7EDBB25B09DBB208E0084A97F997
:103200000730134493F80033DBB25B09DBB2184696
:103210000C37BD465DF8047B704700BF00ED00E051
:1032200000E100E080B483B000AFEFF310833B60B7
:103230003B687B6072B67B6818460C37BD465DF80C
:10324000047B704780B483B000AF78607B68002B4C
:1032500000D162B60C37BD465DF8047B704700BFF5
:1032600080B588B000AF0346FB7197F9073013F1C2
:103270000C0F04DB97F90730272B00DC00BFEFF3BE
:1032800010833B613B6903F00103002B01D0012354
:1032900036E097F90730184600F038F80346002B5F
:1032A00001D001232CE097F907301846FFF792FF71
:1032B000F861EFF31183FB60FB68BB61BB69002B16
:1032C00006D0BB695A09FB699A4201D8012317E06D
:1032D0000D4B5B68C3F308037B617B69002B0ED049
:1032E0007B69DBB2103BDBB2DBB25BB21846FFF7A7
:1032F00071FF0246FB699A4201D8012300E00023D6
:1033000018462037BD4680BD00ED00E080B485B092
:1033100000AF0346FB7197F90730002B04DB97F9E8
:103320000730272B00DC00BF0D4BFB6097F90730FF
:103330005B11DBB25AB2FB6853F82230FA7902F023
:103340001F02012101FA02F21340002B0CBF0123DE
:103350000023DBB218461437BD465DF8047B704786
:1033600000E100E080B483B000AF0346FB71084980
:1033700097F907305B09FA7902F01F02012000FA81
:1033800002F241F823200C37BD465DF8047B7047FC
:1033900000E100E080B483B000AF0346FB7109494F
:1033A00097F907305B09FA7902F01F02012000FA51
:1033B00002F2203341F823200C37BD465DF8047B30
:1033C000704700BF00E100E080B483B000AF034667
:1033D000FB71094997F907305B09FA7902F01F027E
:1033E000012000FA02F2603341F823200C37BD4679
:1033F0005DF8047B704700BF00E100E080B487B057
:1034000000AFF860B9607A60FB6803F10473DA001A
:10341000BB6813449B007B617B697A681A601C3728
:10342000BD465DF8047B704780B489B000AF78601A
:10343000084611461A460346FB700B46BB701346FE
:103440007B707B681A013C4B9B681344BB61BB7863
:10345000002B02D0BB69FB6105E07B681A01364B8B
:10346000DB681344FB61BB69DB687B617B69002B14
:1034700002D0BA787B691A72FB6A002B14D0FB6900
:103480009B6803F040639B0E3B613B69032B03D1B8
:10349000FB69FA6A1A6007E03B693A6B9A40FB6A7B
:1034A00013441A46FB691A60BB6A002B12D0FB69F1
:1034B0009B689B0F3B613B69032B03D1FB69BA6A95
:1034C0005A6007E03B693A6B9A40BB6A13441A465C
:1034D000FB695A607B68012202FA03F3FB607B7888
:1034E000002B03D0144AFB68936102E0124AFB6888
:1034F000D361BB78002B03D00F4AFB68536302E013
:103500000D4AFB681363FB699B6823F47F5323F028
:103510003703BB603B6B1B01BA681343BB60FB788E
:10352000BA681343BB60FB69BA689A602437BD462A
:103530005DF8047B704700BF00200C4080B58AB066
:1035400000AF334B03F580531B68BB61304B03F571
:1035500080530C331B68BA691340BB612C4B9B6BC7
:103560007B61BA697B6913403B620023FB6149E0E0
:1035700000237B623BE03B6A03F00103002B30D069
:10358000234B9B683B6101227B6A02FA03F3FB60D9
:103590001F4B03F580530833FA681A607B6A1B01DE
:1035A0003A691344DB68BB60BB68002B19D0BB6869
:1035B0001B7A7B60BB681B7A83F00103DAB2BB68BD
:1035C0001A72BB681B68002B0BD0BB681B68786A3B
:1035D0007A68002A14BF01220022D1B2BA68526868
:1035E00098473B6A5B083B627B6A01337B623B6ABC
:1035F000002BC0D17B69DA43BB6913403B62FB6996
:103600000133FB61FB69012BB2DD2837BD4680BD6C
:1036100000200C4090B589B004AFF8607B600B4689
:10362000FB721346BB72FA7ABC7A7B6800933B6AE2
:1036300001937B6A0293F86801212346FFF7F4FEA9
:10364000044AFB68012101FA03F393621437BD4673
:1036500090BD00BF00200C4090B589B004AFF86069
:103660007A603B600B46FB72FC7A7B6A0093BB6A14
:103670000193FB6A0293F868032100222346FFF7B7
:10368000D3FEFC7A7B6800933B6801933B6A02930C
:10369000F868032101222346FFF7C6FE044AFB68AF
:1036A000012101FA03F393621437BD4690BD00BFB8
:1036B00000200C4080B584B000AF786039601F4BAB
:1036C0009B68FB607B681B01FA6813443A68926848
:1036D000DA603B681B78002B06D0184A7B68012112
:1036E00001FA03F3936305E0144A7B68012101FAB0
:1036F00003F3D36311493B685A687B6803F5886319
:1037000041F823203B685B78002B0FD00B4A7B6885
:10371000012101FA03F3194602F5805308331960B9
:10372000074879680122FFF769FE04E004487968D8
:103730000022FFF763FE1037BD4680BD00200C401D
:103740000C300C4080B487B000AFF8600B467A6054
:10375000FB72FB7A002B03D0154B9B687B6102E068
:10376000134BDB687B61FB681B017A6913447B6147
:103770007B681B789A077B689B781B071A437B68DA
:103780005B789B061A437B689B781B0613431A469B
:103790007B681B799B0413437A68D27892031A439F
:1037A0007B699A601C37BD465DF8047B704700BF9B
:1037B00000200C4080B483B000AF7860084B9A6A58
:1037C0007B6822FA03F303F00103002B14BF0123EB
:1037D0000023DBB218460C37BD465DF8047B70470A
:1037E00000200C4080B582B000AF78600B46FB70C3
:1037F000FB78002B05D0074879680122FFF7FEFD12
:1038000004E0054879680122FFF7F8FD0837BD4656
:1038100080BD00BF24200C4020200C4080B582B029
:1038200000AF786010480121FFF7D2FA00F09CF851
:103830000020FFF7C9FD0020FFF794FD0B4B03F5B7
:1038400080530C334FF000421A60084A7B685B6873
:103850009360064A7B681B785B0143F00103536069
:103860000837BD4680BD00BF0003020000200C40A9
:1038700080B48BB000AFF8607B600B46FB721346E0
:10388000BB7297F83830002B03D0012387F827301C
:1038900002E0032387F82730FB7A002B06D0FB6871
:1038A0001A01304B9B6813443B6205E0FB681A0128
:1038B0002C4BDB6813443B623B6B002B14D03B6A00
:1038C0009B6803F040639B0EFB61FB69032B03D1F4
:1038D0003B6A3A6B1A6007E0FB697A6B9A403B6B74
:1038E00013441A463B6A1A607B68002B12D03B6A6D
:1038F0009B689B0FFB61FB69032B03D13B6A7A68D2
:103900005A6007E0FB697A6B9A407B6813441A4659
:103910003B6A5A60FB68012202FA03F3BB61BB7A7F
:10392000002B03D00F4ABB69936102E00D4ABB69CB
:10393000D3613B6A9B6823F47F5323F037037B6199
:103940007B6B1B017A6913437B6197F827307A6997
:1039500013437B613B6A7A699A602C37BD465DF8F8
:10396000047B704700200C4080B582B000AF00207F
:10397000FFF710FD1C4B00225A601B4B40F6FF72F4
:10398000DA61194B40F6FF725A62174B40F6FF722C
:10399000DA62154B40F6FF725A63134B40F6FF7222
:1039A000DA63114B0122DA640F4B03F580530C33B9
:1039B00000221A600C4B03F5805308330B4A1A603F
:1039C00000237B6009E0084A7B6803F588630021D7
:1039D00042F823107B6801337B607B680B2BF2DDA0
:1039E0000837BD4680BD00BF00200C40FF0F00809F
:1039F00080B487B000AFF860B9607A60FB6803F10B
:103A00000473DA00BB6813449B007B617B697A68AE
:103A10001A601C37BD465DF8047B704780B485B0E2
:103A200000AFF860B9607A60FB681A68BB68DB4376
:103A30001A407B681A43FB681A601437BD465DF86C
:103A4000047B704780B483B000AF03463960FB71DC
:103A5000FB79002B0DD0FB79012B0AD0FB79022BCF
:103A600007D0FB79032B04D0FB79042B01D0FB7921
:103A7000052B0949FA793B68012000FA03F318463F
:103A80001346DB0013449B000B44103358600C3783
:103A9000BD465DF8047B70470060004080B483B091
:103AA00000AF03463960FB71FB79002B0DD0FB7929
:103AB000012B0AD0FB79022B07D0FB79032B04D012
:103AC000FB79042B01D0FB79052B0949FA793B6876
:103AD000012000FA03F318461346DB0013449B0051
:103AE0000B44103318600C37BD465DF8047B7047FB
:103AF0000060004080B586B000AFB9607A601A46B9
:103B00000346FB731346BB7300237B61FB7B002BD7
:103B10000DD0FB7B012B0AD0FB7B022B07D0FB7B5C
:103B2000032B04D0FB7B042B01D0FB7B052B7B6894
:103B3000072B0ED87B689B001A46072303FA02F175
:103B4000FB7B7A689200934019481A46FFF766FF9C
:103B500010E07B68083B7B617B699B001A4607236A
:103B600003FA02F1FB7B7A699200934011481A46EE
:103B7000FFF754FFBB7B104879681A46FFF738FF00
:103B800097F820300D4879681A46FFF731FF0C4A44
:103B90007B68012101FA03F3C2F81C3197F8243045
:103BA000084879681A46FFF723FF1837BD4680BDDD
:103BB0000061004004610040086100400C61004069
:103BC000006000401061004090B585B000AFB96062
:103BD0007B600346FB731346BB73FB7B002B0DD04E
:103BE000FB7B012B0AD0FB7B022B07D0FB7B032B3B
:103BF00004D0FB7B042B01D0FB7B052BBB7B002B74
:103C00000DD07B68002B05D0FB7B1846B968FFF709
:103C100045FF04E0FB7B1846B968FFF713FFBB685C
:103C2000072B1CD82A4CFA7B2948F97B0B46DB0072
:103C30000B449B0003445968BB689B0018460F2344
:103C40008340DB430B40B97BB86880008140194357
:103C50001346DB0013449B002344596024E01C4CB2
:103C6000FA7B1B48F97B0B46DB000B449B000344AB
:103C700008331968BB6803F18043083B9B00184672
:103C80000F238340DB431940B87BBB6803F18043BB
:103C9000083B9B0000FA03F319431346DB0013446F
:103CA0009B00234408331960BB7B002B0DD17B683C
:103CB000002B05D0FB7B1846B968FFF7EFFE04E048
:103CC000FB7B1846B968FFF7BDFE1437BD4690BDB3
:103CD0000060004080B483B000AF786039607B68DA
:103CE0001B6C03F00103002B00D006E000BF7B68D3
:103CF0005A6C3B681340002BF9D10C37BD465DF878
:103D0000047B704780B582B000AF78600B46FB70D3
:103D100000BF7B689B6803F01003002BF9D0786824
:103D20004021FFF7D7FFFA787B689A620837BD46D3
:103D300080BD00BF80B485B000AF78607B68002B89
:103D400002D0012B04D007E0084B9B68FB6006E023
:103D5000064BDB68FB6002E00023FB6000BFFB68F2
:103D600018461437BD465DF8047B704700000840D4
:103D700080B485B000AF786039607B68002B02D0DA
:103D8000012B03D008E0074BFB6002E0064BFB6011
:103D900000BFFB683A681A601437BD465DF8047BC3
:103DA000704700BF080008400C00084080B586B08E
:103DB00000AFF860B9607A60FB70BB68002B03D17C
:103DC0002448FFF76DF8B860FB78202B0CD0202B2F
:103DD00002DC002B05D03AE0402B08D0602B09D044
:103DE00035E010237B6108E008237B6105E00623B2
:103DF0007B6102E004237B6100BFBB689A007B69A2
:103E0000796801FB03F35B0813443B617B697A68C3
:103E100002FB03F33A69B2FBF3F33B613B69043BFA
:103E20003B613B699B013B613A690B4B13403B6132
:103E3000FB681B6823F06002FB681A60FB681A6865
:103E4000FB781A43FB681A60FB683A695A611837B5
:103E5000BD4680BD40810400C0FF1F0080B485B016
:103E600000AF78600B46FB707B68134A93420FD01B
:103E70007B68124A93420BD07B68114A934207D069
:103E80007B68104A934203D07B680F4A934200D16B
:103E900000BFFB78DB43FB60FB6803F00503FB60BE
:103EA000FB685A007B68DA60FA787B68DA6014375E
:103EB000BD465DF8047B704700C0004000C4004070
:103EC00000C8004000E0004000E4004080B582B03F
:103ED00000AF786039607B68244A93420FD07B68DA
:103EE000234A93420BD07B68224A934207D07B68D7
:103EF000214A934203D07B68204A934200D100BFFD
:103F0000786800F03DF83B689B7C002B05D07B680F
:103F10001B6843F080427B681A603B68DB7C002BA7
:103F200007D03B681B7D43F01003DBB21A467B6869
:103F30009A653B685B7B1A463B681B8A13433A6869
:103F4000D2891A437B685A603B6859683B689A6813
:103F50003B681B7B7868FFF729FF3B681B781A4694
:103F60007B68DA600837BD4680BD00BF00C00040F6
:103F700000C4004000C8004000E0004000E40040F1
:103F800080B483B000AF78607B68244A93420FD03E
:103F90007B68234A93420BD07B68224A934207D026
:103FA0007B68214A934203D07B68204A934200D128
:103FB00000BF7B6840F6AA62DA607B6800221A6064
:103FC0007B6841F205025A607B6800229A607B6838
:103FD00000225A617B680022DA647B6841F6F9723C
:103FE0009A647B6800225A657B680C4A934202D12E
:103FF0007B6800221A657B6800229A657B68084A04
:10400000934203D07B68074A934202D17B68002227
:10401000DA650C37BD465DF8047B704700C0004090
:1040200000C4004000C8004000E0004000E4004040
:1040300080B483B000AF78600B46FB7000BF7B6834
:104040001B6903F04003002BF9D0FA787B685A63B0
:104050000C37BD465DF8047B704700BF80B485B067
:1040600000AFF860B9607A603B601437BD465DF818
:10407000047B704780B584B000AFF860B9607A60A7
:104080003B60F868796801221E4BFEF759FC1E4B15
:104090001B780A2B19D01C4B1B780D2B15D01B4BF2
:1040A0001A681B4B19681B4B0B40002B03DA013BB2
:1040B00063F0030301331344134A12781A70144B4C
:1040C0001B680133124A136013E0114B00221A607F
:1040D000114B1B68114A934200D00AE0104800F0CF
:1040E000C3FB0346F8680E491A46064BFEF728FC48
:1040F00000BFF868044901220A4BFEF743FB103762
:10410000BD4680BD5D400000340700201401002042
:104110009C04002003000080100100207175697468
:104120007407002075400000B0B588B000AF264B82
:104130003C461D460FCD0FC495E80F0084E80F00E4
:10414000224B1A683B4610461946FEF723F92048D1
:10415000204900F065FB1D4B1C681D4800F084FBE6
:10416000034620461A491A461B4BFEF7E9FB174B3C
:104170001B68184619490122FEF754FB134B1B68B4
:10418000184616490122144BFEF7DAFB134B1B7835
:10419000792B17D10E48124900F042FB0B4B1C68DB
:1041A0000B4800F061FB0346204609491A460A4BBA
:1041B000FEF7C6FB054B1B68184608490122094B50
:1041C000FEF7E0FAFEE700BFCC5000000C01002033
:1041D00074070020A45000005D4000003407002058
:1041E000BC5000007540000053B94AB9002908BF0F
:1041F00000281CBF4FF0FF314FF0FF3000F03CB8FB
:1042000082B0EC462DE9005000F01EF8DDF804E025
:1042100002B00CBC704700BF2DE9F041069C15466A
:1042200006460F46984600F029F805FB01F300FB0F
:104230000838A5FB0023B21A434467EB0303C4E923
:104240000023BDE8F08100BF2DE9F041069C9046B7
:1042500006460F461D4600F05FF900FB05F5A0FB82
:10426000082308FB0155B21A2B4467EB0303C4E98A
:104270000023BDE8F08100BF704700BF00292DE991
:10428000F043C0F2A6800026002BC0F29C80884636
:1042900094469E46154604460F46002B3DD18A4261
:1042A00059D9B2FA82F33BB1C3F120029F4020FA00
:1042B00002F29D4017439C40290C220CB7FBF1FEF3
:1042C000A8B201FB1E7742EA074700FB0EF3BB4290
:1042D0000AD97F190EF1FF3280F00581BB4240F20E
:1042E0000281AEF1020E2F44FF1AA4B2B7FBF1F324
:1042F00001FB137744EA074700FB03F0B84208D9F3
:104300007F1903F1FF3280F0F080B84240F2ED8077
:10431000023B43EA0E43002203E08B420FD9002206
:104320001346341C18BF012460424FF0000565EBB2
:1043300045015840514000196941BDE8F083B3FA86
:1043400083F2002A40F086808B4202D3844500F23B
:10435000DB800123E5E712B90123B3FBF2F5B5FADF
:1043600085F000283BD1781B4FEA154E1FFA85FCDB
:104370000122B0FBFEF8210C0EFB180741EA0747AB
:104380000CFB08F3BB4207D97F1908F1FF3102D2B9
:10439000BB4200F2BD808846FF1AA4B2B7FBFEF311
:1043A0000EFB137744EA07470CFB03FCBC4507D917
:1043B0007F1903F1FF3102D2BC4500F2A7800B4602
:1043C00043EA0843ADE752426FEA060663EB430354
:1043D0005DE7404261EB41014FF0FF3654E7C0F129
:1043E000200224FA02F107FA00F385404FEA154E45
:1043F000D7401943B7FBFEF20B0C0EFB12771FFAE6
:1044000085FC43EA07430CFB02F79F4204FA00F4E1
:1044100007D95B1902F1FF3074D29F4272D9023A78
:104420002B44DF1B89B2B7FBFEF80EFB187341EA81
:1044300003430CFB08F79F4208D95B1908F1FF31D1
:104440005CD29F425AD9A8F102082B44D81B48EAF3
:1044500002428EE7C2F120032CFA03F10EFA02FEAB
:1044600020FA03F741EA0E0E08FA02F028FA03F1E7
:104470004FEA1E453843B1FBF5F8030C05FB181154
:104480001FFA8EF743EA014107FB08F38B420CFA4F
:1044900002FC09D911EB0E0108F1FF3930D28B4231
:1044A0002ED9A8F102087144C91A80B2B1FBF5F304
:1044B00005FB131140EA014107FB03F78F4208D9BE
:1044C00011EB0E0103F1FF3016D28F4214D9023BDB
:1044D000714443EA0843C91BA3FB0C89494509D32E
:1044E00005D000221DE79646FEE6134611E79440EC
:1044F0004445F6D2013BF4E70346EAE78846A5E7E0
:10450000C846D1E702468CE713460AE7023B57E765
:10451000A8F102082F443FE72DE9F041002B44D1D8
:104520008A42154604464FD9B2FA82F70E464FB179
:10453000C7F12003B94020FA03F602FA07F50E434B
:1045400000FA07F44FEA154E230CB6FBFEF0AFB2AB
:104550000EFB106143EA014307FB00F1994209D9C0
:104560005B1900F1FF3280F0EC80994240F2E98063
:1045700002382B445A1AA4B2B2FBFEF30EFB1322EC
:1045800044EA024207FB03F7974208D9521903F1A4
:10459000FF3180F0D880974240F2D580023B43EA59
:1045A000004000263146BDE8F0818B4247D8B3FA7F
:1045B00083F6002E48D18B4202D3824200F2CD8096
:1045C00001203146BDE8F08112B90125B5FBF2F5B5
:1045D000B5FA85F8B8F1000F77D14A1B4FEA154EAE
:1045E000AFB20126B2FBFEF0230C0EFB102143EA12
:1045F000014107FB00F38B4207D9491900F1FF3253
:1046000002D28B4200F2BA801046C91AA4B2B1FBA2
:10461000FEF30EFB131144EA014407FB03F7A74224
:1046200008D9641903F1FF3280F08F80A74240F26D
:104630008C80023B43EA00403146BDE8F081002611
:1046400030463146BDE8F081C6F1200422FA04F577
:10465000B3402B4320FA04FC01FA06F721FA04F5D3
:104660004FEA134E4CEA0707B5FBFEF8390C0EFB78
:1046700018551FFA83FC41EA05450CFB08F1A942D5
:1046800002FA06F204D9ED1808F1FF3467D3A04608
:104690006D1ABFB2B5FBFEF40EFB145547EA054197
:1046A0000CFB04FC8C4504D9C91804F1FF355CD31C
:1046B0002C4644EA0844CCEB0101A4FB02239942B6
:1046C00048D344D0204600266CE7C8F1200401FA04
:1046D00008F305FA08F520FA04F7E1404FEA154E11
:1046E0001F43B1FBFEF63A0C0EFB16111FFA85FCB8
:1046F00042EA01430CFB06F29A4200FA08F407D999
:104700005B1906F1FF3137D29A4235D9023E2B446C
:104710009B1ABFB2B3FBFEF00EFB103347EA034314
:104720000CFB00F1994207D95B1900F1FF3221D24D
:1047300099421FD902382B445A1A40EA0646674666
:1047400050E7104616E70B4629E7134672E7B040DC
:104750009042B7D2601E002624E7304622E7A942E5
:1047600095D9A8F102081D4492E78C45A0D9023CD6
:1047700019449EE71046DFE70E46C9E70238294490
:1047800043E700BF08B5074B044613B10021AFF360
:104790000080054B1868836A03B19847204600F0F3
:1047A0005FFC00BF00000000F050000070B50E4B31
:1047B0000E4CE41AA41000251E46A54204D056F85B
:1047C000253098470135F8E700F04CFC084C094BC0
:1047D000E41AA41000251E46A54204D056F8253040
:1047E00098470135F8E770BD7C0100207C0100206E
:1047F000800100207C01002010B5431E0A44914234
:1048000004D011F8014B03F8014FF8E710BD024442
:104810000346934202D003F8011BFAE770470000F9
:104820000EB400B59CB04FF40271ADF814106FF0E7
:104830000041049107914FF6FF711DABADF81610C2
:10484000084953F8042B029006900868019302A9C6
:1048500000F06CF8029B00221A701CB05DF804EBAB
:1048600003B0704778010020034613F8012B002A9B
:10487000FBD1181A013870472DE9F0478E68B34212
:1048800082460C469046994640D38A8912F4906F2E
:104890003AD0256809696F1A6569022305EB450559
:1048A00095FBF3F57B1C4B449D4238BF1D465305D9
:1048B0000FD5294600F030FB064698B121693A46EB
:1048C000FFF79AFFA38923F4906343F08003A38149
:1048D00013E02A4600F076FB064670B9504621697F
:1048E00000F0D6FA0C23CAF80030A38943F0400345
:1048F000A3814FF0FF30BDE8F087266165613E443B
:10490000ED1B2660A5604E46B14500D24E463246AC
:104910002068414600F0A1FAA3689B1BA3602368AE
:104920001E4426600020BDE8F08700002DE9F0431A
:104930009DB0064603938B891C060D4690460CD508
:104940000B6953B9402100F0E7FA2860286110B9DB
:104950000C233360CCE040236B61002309932023B8
:104960008DF8293030238DF82A3043461C4613F841
:10497000012B1AB9B4EB08090FD002E0252AF5D1B2
:10498000F8E73046294642464B46FFF775FF0130AF
:1049900000F0A980099B4B4409932378002B00F079
:1049A000A28000234FF0FF320493079305920693F1
:1049B0008DF853301A9304F101084446DFF848910A
:1049C00021784846052200F039FA08F10108049BD5
:1049D00030B1C9EB00000122824013430493ECE79D
:1049E000D80644BF20228DF85320190744BF2B223C
:1049F0008DF8532022782A2A02D0079923460EE008
:104A0000039A111D12680391002ABBBF524243F062
:104A1000020307920792B8BF049301340AE01C46D0
:104A200001332278303A092A03D80A2000FB0121F9
:104A3000F5E7079123782E2B1AD163782A2B0AD118
:104A4000039B1A1D1B680392002BB8BF4FF0FF3366
:104A5000023405930CE0611C00220C4601312378DE
:104A6000303B092B03D80A2000FB0232F5E7059200
:104A7000DFF8988021784046032200F0DFF938B152
:104A8000049AC8EB0000402383401343049301348D
:104A900021781A488DF82810062204F1010800F048
:104AA000CDF988B1164B33B9039B073323F00703C5
:104AB0000833039313E003AB0093304604A92A465E
:104AC000104BAFF3008007E003AB0093304604A91E
:104AD0002A460C4B00F092F8421C074603D0099B73
:104AE0003B44099341E7AB895B0601D4099801E097
:104AF0004FF0FF301DB0BDE8F08300BFFE50000056
:104B00000000000079480000F4500000FA50000056
:104B10002DE9F84391461F468A680B69DDF820802D
:104B20009342B8BF1346C9F8003091F843200646B7
:104B30000C4612B10133C9F800302368990642BF10
:104B4000D9F800300233C9F80030256815F00605A1
:104B50001CD094F843302268003318BF012392061A
:104B60001FD5E1185A1C302081F84300224494F8E4
:104B7000451082F84310023313E03046394604F101
:104B800019020123C047013007D00135E368D9F885
:104B900000209B1A9D42F0DBDBE74FF0FF30BDE8C1
:104BA000F8833046394604F14302C0470130F4D05F
:104BB0002268D9F80050E36802F00602042A08BF10
:104BC0005D1B2269A3680CBF25EAE57500259342A9
:104BD000C4BF9B1AED184FF00009A9450ADA304608
:104BE000394604F11A020123C0470130D5D009F13A
:104BF0000109F2E70020BDE8F88300002DE9FF413C
:104C00000C461746227E6E2A984606460A9B01F1FC
:104C1000430100F0AF8012D8632A23D00AD8002ABB
:104C200000F0BC80582A40F0CB8084F84520DFF8A3
:104C300004E257E0642A1ED0692A1CD0C0E0732A1F
:104C400000F0B08009D86F2A2ED0702A40F0B880CA
:104C5000226842F0200222603FE0752A24D0782AA0
:104C60003BD0ADE01A68111D1960136884F842301A
:104C700004F14205A8E020681A6810F0800F02D005
:104C8000101D186008E010F0400F02F104001860D9
:104C900002D0B2F9003000E01368002B3EDA2D227A
:104CA0005B4284F8432039E020681A6810F0800FD6
:104CB00002D0101D186007E010F0400F02F1040050
:104CC000186001D0138800E01368227EDFF864E1E9
:104CD0006F2A0CBF08220A221CE07822DFF858E174
:104CE00084F845202268186812F0800F00F104054E
:104CF0001D6003D1550601D5038800E00368D00785
:104D000044BF42F0200222601BB9226822F0200238
:104D100022601022002084F8430002E0DFF814E152
:104D20000A226568A560002DA2BF206820F004005B
:104D3000206003B965B10D46B3FBF2F002FB1033FE
:104D40001EF8033005F8013D03460028F4D100E0C9
:104D50000D46082A0BD12368DA0708D52369626853
:104D60009A42DEBF302305F8013C05F1FF35491BAF
:104D700021612EE025681A68606915F0800F03D064
:104D8000151D1D60136808E015F0400F02F10405C1
:104D90001D60136801D0188000E0186000232361B3
:104DA0000D4616E01A68111D1960156862682846DC
:104DB000002100F043F808B1401B6060636804E024
:104DC00004F1420584F8422001232361002384F882
:104DD0004330CDF800803046214603AA3B46FFF71A
:104DE00097FE013002D14FF0FF301FE030463946C8
:104DF0002A462369C0470130F5D023689B0705D4B4
:104E0000E068039B9842B8BF18460FE00025E368AE
:104E1000039A9B1A9D42F3DA3046394604F119028F
:104E20000123C0470130DED00135F0E704B0BDE812
:104E3000F08100BF055100001651000010B5C9B245
:104E400002449042034606D01C788C4200F10100D7
:104E5000F7D1184610BD002010BD814210B501EBFE
:104E6000020301D3421E0BE09842FBD28118D21AF2
:104E7000D34204D013F8014D01F8014DF8E710BDFD
:104E8000994204D011F8014B02F8014FF8E710BD28
:104E900030B500293DD051F8042C0B1F1D49002AC4
:104EA000B8BF9B180A680C4612B95A600B6030BD37
:104EB00093420DD219685818904201BF5A5852189F
:104EC0001A6042685A60236030BD994203D80A468E
:104ED00051680029F9D1146815199D420AD11B683F
:104EE0002344D0188842136013D108680344136028
:104EF0004B680DE002D90C23036030BD1C68181903
:104F0000884204BF08684968596004BF00191860E6
:104F1000536030BDA404002070B5CC1C24F0030401
:104F200008340C2C38BF0C24002C064603DA0C2362
:104F30003360002070BD8C42F9D3204A13681046BC
:104F40001946A1B10A68121B0ED40B2A03D90A60B4
:104F50008B188C501FE08B420DBF5A684A685A600C
:104F6000026018BF0B4616E00B464968E9E7144D8E
:104F70002B681BB9304600F04BF8286030462146BC
:104F800000F046F8421C0346D1D0C51C25F00305AD
:104F900085420AD11C6003F10B001A1D20F00700A6
:104FA000821A0AD05142995070BD3046E91A00F079
:104FB0002FF80130BBD02B46ECE770BDA4040020D5
:104FC000A0040020F8B5074615460E4621B9114643
:104FD000BDE8F840FFF7A0BF1AB9FFF759FF284610
:104FE000F8BD00F025F8A8420ED238462946FFF752
:104FF00093FF044650B131462A46FFF7FDFB384681
:105000003146FFF745FF01E03046F8BD2046F8BDC8
:1050100038B5064C002305460846236000F012F818
:10502000431C02D1236803B12B6038BDB4070020B4
:1050300051F8040C0028BEBF091851F8043CC018F0
:1050400004387047044A05491368002B08BF0B4613
:105050001844106018467047A8040020B8070020C4
:10506000FEE700BFF8B500BFF8BC08BC9E4670471D
:10507000F8B500BFF8BC08BC9E46704705000000AC
:105080000000000000C20100000500000010000048
:105090000000000005000000000000008025000066
:1050A0000000000053746172742070726F67726147
:1050B0006D3F2028792F6E293A200000456E7465D7
:1050C0007220436F6D6D616E643A200000C0004035
:1050D00000C20100050000100000000000040C04E4
:1050E0000D0000000C0000208C0000204300000098
:1050F00018010020232D302B2000686C4C006566C1
:105100006745464700303132333435363738394118
:10511000424344454600303132333435363738392E
:0C5120006162636465660000000000002E
:08512C0010B0FF7F010000003C
:10513400006CDC0200800000809FD50000000000AD
:105144000000060000000000000000000000000055
:10515400000000000000000000000000000000004B
:10516400000000000000000000000000000000003B
:10517400000000000000000000000000000000002B
:10518400000000000000000000000000000000001B
:10519400000000000000000000000000000000000B
:1051A40000000000000000000000000000000000FB
:1051B40000000000000000000000000000000000EB
:1051C40000000600000000000000000000000000D5
:1051D40000000000000000000000000000000000CB
:1051E40000000000000000000000000000000000BB
:1051F40000000000000000000000000000000000AB
:10520400000000000000000000000000000000009A
:10521400000000000000000000000000000000008A
:10522400000000000000000000000000000000007A
:105234000000000000000000000000000007002043
:105244007175697410010020000000000000000066
:10525400000000000000000000000000000000004A
:105264000000000000000000EC50000000000000FE
:10527400000000000000000000000000000000002A
:10528400000000000000000000000000000000001A
:10529400000000000000000000000000000000000A
:1052A40000000000000000001801002005010000BB
:0852B400E10000000000000011
:04000003000001B147
:00000001FF
